:0300000002062BCA
:0C062B00787FE4F6D8FD7581230206728A
:10074200020C0000080E0000000000000000040877
:0A075200FFFFFFFF04160000000087
:10022D00FFE4351AFE7C007D041206B7E4FB7F0166
:01023D00FEC2
:10023E008C228D23EE60030203D8EF1460731470CA
:10024E000302031F14700302037F240360030203DF
:10025E00D8E52260030203D8E523B4080040030268
:10026E0003D8900277F828287302028F02029502B3
:10027E00029B0202A10202A70202AD0202B3020217
:10028E00B9EB24FF928022EB24FF928122EB24FF14
:10029E00928222EB24FF928322EB24FF928422EBA4
:1002AE0024FF928522EB24FF928622EB24FF928775
:1002BE0022E52260030203D8E523B40800400302BE
:1002CE0003D89002D7F82828730202EF0202F50233
:1002DE0002FB02030102030702030D0203130203D2
:1002EE0019EB24FF929022EB24FF929122EB24FF34
:1002FE00929222EB24FF929322EB24FF929422EB14
:10030E0024FF929522EB24FF929622EB24FF9297E4
:10031E0022E52260030203D8E523B408004003025D
:10032E0003D8900337F828287302034F02035502AF
:10033E00035B02036102036702036D020373020390
:10034E0079EB24FF92A022EB24FF92A122EB24FF53
:10035E0092A222EB24FF92A322EB24FF92A422EB83
:10036E0024FF92A522EB24FF92A622EB24FF92A754
:10037E0022E5227055E523B40800504E900391F803
:10038E002828730203A90203AF0203B50203BB02BE
:10039E0003C10203C70203CD0203D3EB24FF92A0D5
:1003AE0022EB24FF92A122EB24FF92A222EB24FF48
:1003BE0092A322EB24FF92A422EB24FF92A522EB20
:0B03CE0024FF92A622EB24FF92A7223E
:0B03D900E51B2404FDE4351AFC7E0047
:1003E400E4FBEE600302054AEF1460691470030233
:1003F40004AF1470030204FD2403600302054AECF5
:10040400600302054AEDB40800400302054A900463
:1004140019F828287302043102043602043B02044A
:100424004002044502044A02044F020454A280021A
:100434000547A281020547A282020547A28302055D
:1004440047A284020547A285020547A28602054702
:10045400A287020547EC600302054AEDB408004098
:100464000302054A90046FF82828730204870204E3
:100474008C02049102049602049B0204A00204A5C7
:100484000204AAA290020547A291020547A2920281
:100494000547A293020547A294020547A2950205C7
:1004A40047A296020547A297020547EC600302059E
:1004B4004AEDB40800400302054A9004C5F8282810
:1004C400730204DD0204E10204E50204E90204ED1E
:1004D4000204F10204F50204F9A2A08066A2A1803C
:1004E40062A2A2805EA2A3805AA2A48056A2A58082
:1004F40052A2A6804EA2A7804AAE04AF05EC704675
:10050400EFB408005040900511F82828730205291B
:1005140002052D02053102053502053902053D02A9
:100524000541020545A2A0801AA2A18016A2A280BC
:1005340012A2A3800EA2A4800AA2A58006A2A6806D
:0805440002A2A7E433FBAF03A0
:01054C00228C
:10075D008E0C8F0D758901D2A9758CF5758AFFD216
:0A076D008CD2AFE50D450C70FA22A6
:03000B0002054D9E
:10054D00C0E0C083C082C0D075D000C000C002C062
:09055D0003C004C005C006C0077C
:10056600E4FAF520F52174082AF8E6F4700302058A
:10057600FD752000752101EA25E0240EF8E6FE0847
:10058600E62521FFE5203EFED3EF9428EE9400EA0F
:10059600FD7C0040057B01E48002E4FBFFFE1202C5
:1005A6003E0521E52170020520D39427E52094001D
:1005B60040C574082AF8E6601CEA25E0240EF8080F
:1005C600E61618700116EA25E0240EF8E6FE08E69F
:1005D6004E7024801CEA25E0240EF80806E6187002
:1005E6000106EA25E0240EF8E6FE08E664284E70C9
:1005F6000674082AF876FF0AEA6404600302056CAA
:0E060600758CF5758AFFE50D150D7002150C4B
:10061400D007D006D005D004D003D002D000D0D06B
:07062400D082D083D0E03248
:10000E00E4F51AF51BF51CFAF51D7590FFE4F51ACB
:10001E00F51BAD1BAC1A7F027E001203E48F1CE5AC
:10002E001C700A7F021203D9AB070201F67F011280
:10003E0003D9EF600EAD1BAC1A7F017E001203E4F4
:10004E00EF7026E51D7022AF1B74162FF8E67013A5
:10005E00AE1BEE25E0240EF8760008762874082EE6
:10006E00F8760174162FF8761EE51B2404FDE43590
:10007E001AFCE4FFFE1203E4EF60030201C4E51B69
:10008E0024FEFFE51A34FFFED3EF94FFEE64809456
:10009E007F50137A01751D01E51B2406FDE4351A08
:1000AE00FC1202398022AF1B74142FF8E67013AEC7
:1000BE001BEE25E0240AF8760008762874062EF842
:1000CE00760174142FF8761EE51B24FFFFE51A3413
:1000DE00FFFED3EF94FFEE6480947F50137A017588
:1000EE001D01E51B2407FDE4351AFC12023980229E
:1000FE00AF1B74152FF8E67013AE1BEE25E0240C23
:10010E00F8760008762874072EF8760174152FF805
:10011E00761EAF1B74162FF8E67013AE1BEE25E09D
:10012E00240EF8760008762874082EF876017416D8
:10013E002FF8761EE51B2401FFE4351AFEC3EF945B
:10014E0004EE64809480400B7A01E51B24011202B8
:10015E002D80227417251BF8E67013AF1BEF25E0D8
:10016E002410F8760008762874092FF87601741793
:10017E00251BF8761EE51B2402FFE4351AFEC3EF9D
:10018E009404EE64809480400B7A01E51B240212E5
:10019E00022D8022AF1B74182FF8E67013AE1BEEE3
:1001AE0025E02412F87600087628740A2EF87601D7
:1001BE0074182FF8761E7416251BF8E6601CAF1BFC
:1001CE001674162FF8E67012AF1BEF25E0240EF80A
:1001DE00E4F608F674082FF8E4F67416251BF8E614
:1001EE0070047B0180027B00AD1BAC1AE4FFFE1293
:1001FE00023E051BE51B7002051AD39403E51A6433
:10020E0080948050030200207F327E0012075DEA48
:0F021E00700302001B7590FFE4FAF51D02001B30
:1006370002000EE493A3F8E493A34003F68001F2CB
:1006470008DFF48029E493A3F85407240CC8C333C4
:10065700C4540F4420C8834004F456800146F6DF93
:10066700E4800B0102040810204080900742E47EDA
:10067700019360BCA3FF543F30E509541FFEE49388
:10068700A360010ECF54C025E060A840B8E493A34F
:10069700FAE493A3F8E493A3C8C582C8CAC583CA7A
:1006A700F0A3C8C582C8CAC583CADFE9DEE780BE32
:01075C00009C
:1006B700C2D5EC30E709B2D5E4C39DFDE49CFCEE5E
:1006C70030E715B2D5E4C39FFFE49EFE1206EDC3E3
:1006D700E49DFDE49CFC80031206ED30D507C3E4DE
:0606E7009FFFE49EFE22CD
:1006ED00BC000BBE0029EF8DF084FFADF022E4CCF1
:1006FD00F875F008EF2FFFEE33FEEC33FCEE9DECBA
:10070D00984005FCEE9DFE0FD5F0E9E4CEFD22EDFF
:10071D00F8F5F0EE8420D21CFEADF075F008EF2F49
:10072D00FFED33FD4007985006D5F0F222C398FD3A
:05073D000FD5F0EA22D7
:00000001FF
