:030000000205787E
:0C057800787FE4F6D8FD7581210205BFF4
:10064D000110000512FF004080C0011100041C01C3
:10065D000101010418010101010117000808000042
:06066D0000000000000087
:1006A400D29C758920758DFD758BFDD28EC29FD22B
:0206B4009E2284
:0A06C5008F993099FDC2990206B624
:10067400900000AF82AE83E4FCFD7BC87AAFF9F84A
:09068400D312068E4003A380EAA4
:01068D00224A
:0E06B600E4FFFE0FBF00010EEF642D4E70F545
:0106C4002213
:09026300FD7C00AB027F027E006D
:10026C008C208D21EE6003020406EF146073147071
:10027C000302034D1470030203AD24036003020454
:10028C0006E5206003020406E521B40800400302E1
:10029C0004069002A5F82828730202BD0202C302CC
:1002AC0002C90202CF0202D50202DB0202E1020203
:1002BC00E7EB24FF928022EB24FF928122EB24FFB8
:1002CC00928222EB24FF928322EB24FF928422EB76
:1002DC0024FF928522EB24FF928622EB24FF928747
:1002EC0022E5206003020406E521B4080040030265
:1002FC000406900305F828287302031D0203230249
:10030C00032902032F02033502033B0203410203BC
:10031C0047EB24FF929022EB24FF929122EB24FFD7
:10032C00929222EB24FF929322EB24FF929422EBE5
:10033C0024FF929522EB24FF929622EB24FF9297B6
:10034C0022E5206003020406E521B4080040030204
:10035C000406900365F828287302037D02038302C8
:10036C00038902038F02039502039B0203A102037C
:10037C00A7EB24FF92A022EB24FF92A122EB24FFF7
:10038C0092A222EB24FF92A322EB24FF92A422EB55
:10039C0024FF92A522EB24FF92A622EB24FF92A726
:1003AC0022E5207055E521B40800504E9003BFF8AB
:1003BC002828730203D70203DD0203E30203E902D8
:1003CC0003EF0203F50203FB020401EB24FF92A0EE
:1003DC0022EB24FF92A122EB24FF92A222EB24FF1A
:1003EC0092A322EB24FF92A422EB24FF92A522EBF2
:0B03FC0024FF92A622EB24FF92A72210
:080407007D067C007F017E00F0
:10040F00E4FBEE6003020575EF14606914700302DC
:10041F0004DA14700302052824036003020575EC47
:10042F006003020575EDB4080040030205759004E2
:10043F0044F828287302045C020461020466020473
:10044F006B02047002047502047A02047FA2800218
:10045F000572A281020572A282020572A2830205B1
:10046F0072A284020572A285020572A2860205722B
:10047F00A287020572EC6003020575EDB408004017
:10048F000302057590049AF82828730204B2020437
:10049F00B70204BC0204C10204C60204CB0204D09A
:1004AF000204D5A290020572A291020572A29202D5
:1004BF000572A293020572A294020572A29502051B
:1004CF0072A296020572A297020572EC60030205F2
:1004DF0075EDB4080040030205759004F0F8282864
:1004EF007302050802050C02051002051402051817
:1004FF0002051C020520020524A2A08066A2A1808D
:10050F0062A2A2805EA2A3805AA2A48056A2A58056
:10051F0052A2A6804EA2A7804AAE04AF05EC704649
:10052F00EFB40800504090053CF82828730205549A
:10053F0002055802055C02056002056402056802A7
:10054F00056C020570A2A0801AA2A18016A2A2803B
:10055F0012A2A3800EA2A4800AA2A58006A2A68042
:08056F0002A2A7E433FBAF0375
:010577002261
:100003001206A41206747590FFE50945087016E5FB
:100013000B450A7010E50D450C700AE50F450E708F
:10002300047B0180027B007D057C007F017E001242
:10003300026CE4FD12040FEF700675080F7509A03A
:100043007D01120409EF7006750A0F750BA07D027E
:10005300120409EF7006750C0F750DA07D031204D1
:1000630009EF7006750E0F750FA0E50945087015A9
:10007300E50B450A700FE50D450C7009E50F450EBC
:10008300700302011DE50945086008E509150970BB
:10009300021508E50B450A6008E50B150B70021500
:1000A3000AE50D450C6008E50D150D7002150CE50C
:1000B3000F450E6008E50F150F7002150ED3E50D01
:1000C3009400E50C940040047F0180027F00EF253B
:1000D300E025E0FFD3E50F9400E50E940040047E95
:1000E3000180027E00EE33333354F82FFFD3E50B48
:1000F3009400E50A940040047E0180027E00EE2510
:10010300E02FFFD3E5099400E508940040047E0145
:1001130080027E00EF2EFF1206C52098030201BF66
:10012300859911E51130E1047F0180027F00E5111B
:10013300C413135403FE241CF8A607741C2EF8E6FC
:10014300FA603A120407EF701F0D7F01FE12040FCD
:10015300EF7015E511C413135403FDE4FB7F02FE96
:1001630012026CE4FD0B804DE511C413135403FD1F
:100173007C00241CF8E6FB7F027E008038E511C476
:1001830013135403120263E51120E0031F80027F5F
:1001930000E511C413135403FE2418F8A607EE2434
:1001A30004FDE433FCE511C4131354032418F8E6E7
:1001B300FB7F027E0012026CC2988062E4F5177422
:1001C3001C2517F8E6FA6036120407EF70200D7F3E
:1001D30001FE12040FEF7016E517FDE4FB7F02FE2C
:1001E30012026CE5172404FDEE33FC0B8024E517A3
:1001F300FD7C00241CF8E6FB7F027E008014E517DB
:10020300120263E5172404FDEE33FC74182517F876
:10021300E6FB12026C0517E517D3940340A17F0395
:10022300120604EF33333354F824F0FFC0077F0280
:10023300120604EF25E025E0FED0E02EFFC0077F85
:1002430001120604EF25E0FED0E02EFEC006E4FF17
:10025300120604D0E02FFF1206C51206B602000CE8
:02060400AA0743
:10060600E4F520741C2AF8E6701A74182AF8E670C5
:1006160013EA2404FDE433FCE4FFFE12040FEF604A
:10062600037F0022EAFD7C00E4FFFE12040FEF7058
:1006360013EA2404FDE433FCE4FFFE12040FEF602A
:06064600037F00227F018A
:01064C00228B
:10058400020003E493A3F8E493A34003F68001F28A
:1005940008DFF48029E493A3F85407240CC8C33378
:1005A400C4540F4420C8834004F456800146F6DF47
:1005B400E4800B010204081020408090064DE47E84
:1005C400019360BCA3FF543F30E509541FFEE4933C
:1005D400A360010ECF54C025E060A840B8E493A303
:1005E400FAE493A3F8E493A3C8C582C8CAC583CA2E
:1005F400F0A3C8C582C8CAC583CADFE9DEE780BEE6
:010673000086
:10068E00EB9FF5F0EA9E42F0E99D42F0EC6480C8E3
:06069E0064809845F02283
:00000001FF
